:020000040800F2
:10000000005000206D1500083D140008451400083C
:100010004D140008551400085D140008000000008D
:10002000000000000000000000000000651400084F
:1000300071140008000000007D14000889140008F5
:10004000B5150008B5150008B5150008B515000868
:10005000B5150008B5150008B5150008B515000858
:10006000B5150008B5150008B5150008B515000848
:10007000B5150008B5150008B5150008B515000838
:10008000B5150008B515000895140008B515000849
:10009000B5150008B5150008B5150008A914000825
:1000A000B5150008B5150008B5150008B515000808
:1000B000B9140008CD140008B5150008B5150008DE
:1000C000B5150008B5150008B5150008B5150008E8
:1000D000B5150008E1140008B5150008B5150008AD
:1000E000B5150008B5150008B5150008000000009A
:1000F0000000000000000000000000000000000000
:0C01000000000000000000005FF808F1A3
:10010C0010B5054C237833B9044B13B10448AFF345
:10011C0000800123237010BD64000020000000004B
:10012C00BC63000808B5034B1BB103490348AFF38C
:10013C00008008BD0000000068000020BC630008BF
:10014C0080B586B002AF78600B46FB70FB7823F06D
:10015C000F03FB73FB781B01BB73FB7B43F00C039E
:10016C00DBB23B72FB7B43F00803DBB27B72BB7BE5
:10017C0043F00C03DBB2BB72BB7B43F00803DBB276
:10018C00FB727B6818687B681B79194607F10802BB
:10019C0064230093042302F04BFA00BF1037BD46D2
:1001AC0080BD80B586B002AF78600B46FB70FB78E3
:1001BC0023F00F03FB73FB781B01BB73FB7B43F03A
:1001CC000D03DBB23B72FB7B43F00903DBB27B72AA
:1001DC00BB7B43F00D03DBB2BB72BB7B43F009036B
:1001EC00DBB2FB727B6818687B681B79194607F1D8
:1001FC00080264230093042302F01AFA00BF10379C
:10020C00BD4680BD80B584B000AFF860B9607A603F
:10021C007B68002B04D1BB6843F08003BB6003E018
:10022C00BB6843F0C003BB60BB68DBB21946F8681F
:10023C00FFF786FF00BF1037BD4680BD80B582B08A
:10024C0000AF7860322001F013FA30217868FFF7A4
:10025C0077FF052001F00CFA30217868FFF770FF6A
:10026C00012001F005FA30217868FFF769FF0A20B8
:10027C0001F0FEF920217868FFF762FF0A2001F0F7
:10028C00F7F928217868FFF75BFF012001F0F0F9FE
:10029C0008217868FFF754FF012001F0E9F90121EA
:1002AC007868FFF74DFF022001F0E2F9062178682B
:1002BC00FFF746FF012001F0DBF90C217868FFF70E
:1002CC003FFF00BF0837BD4680BD80B582B000AF90
:1002DC007860396007E03B685A1C3A601B78194615
:1002EC007868FFF75EFF3B681B78002BF3D100BFEB
:1002FC0000BF0837BD4680BD80B586B002AF03464F
:10030C003960FB71FB7963F07F03DBB23B733B68B5
:10031C00DBB27B7307F10C0264230093022352219E
:10032C00034802F085F900BF1037BD4680BD00BF01
:10033C00B000002080B586B002AF0346FB71FB799C
:10034C0063F07F03DBB23B7307F10C026423009371
:10035C0001235221084802F06BF907F10C026423C7
:10036C00009301235221044802F060FA3B7B1846AB
:10037C001037BD4680BD00BFB000002080B586B0F0
:10038C0002AF0346FB71FB7963F07F03DBB23B7377
:10039C0007F10C0264230093012352210D4802F053
:1003AC0047F907F1080264230093022352210948FC
:1003BC0002F03CFA7B7AFB81FB891B02FB813B7AC6
:1003CC001A46FB891343FB81FB8918461037BD463F
:1003DC0080BD00BFB000002080B500AF012100201F
:1003EC00FFF78AFF032001F043F903210020FFF7F8
:1003FC0083FF322001F03CF900BF80BD80B582B094
:10040C0000AF0346FB71074B1B78002B01D100F0AA
:10041C0021F8FB7919460120FFF76EFF00BF083762
:10042C00BD4680BDFA02002080B582B000AF034605
:10043C00FB71074B1B78002B01D100F00BF8FB79FB
:10044C0019460F20FFF758FF00BF0837BD4680BD87
:10045C00FA02002080B582B000AF1220FFF76AFFCD
:10046C000346FB71FB79442B02D0FB79102B0BD18B
:10047C00074B01221A70EB20FFF7C0FF0120FFF79A
:10048C00D3FFFFF7A9FF00E000BF0837BD4680BDD2
:10049C00FA02002080B584B000AFF860B9607A60D1
:1004AC003B60144B1B78002B01D1FFF7D3FF1420BA
:1004BC00FFF764FF03461A463B681A801620FFF7C5
:1004CC005DFF03461A46FB681A801820FFF756FF9B
:1004DC0003461A46BB681A801A20FFF74FFF0346E3
:1004EC001A467B681A80322001F0C2F800BF103720
:1004FC00BD4680BDFA02002080B586B000AFF86022
:10050C00B9607A6007F1100307F1120207F11401C8
:10051C0007F11600FFF7BEFF3B8A002B09D1FB68E1
:10052C0000221A60BB6800221A607B6800221A60E5
:10053C001DE0FB8A1A4613461B029B1A3A8A93FB50
:10054C00F2F2FB681A60BB8A1A4613461B029B1A0E
:10055C003A8A93FBF2F2BB681A607B8A1A461346FE
:10056C001B029B1A3A8A93FBF2F27B681A6000BF5B
:10057C001837BD4680BD000080B58CB000AFF86068
:10058C00B9607A600023FB620023BB6200237B62AC
:10059C0000233B6217E007F1140207F1180107F181
:1005AC001C031846FFF7A8FFFB69FA6A1344FB62A9
:1005BC00BB69BA6A1344BB627B697A6A13447B6277
:1005CC003B6A01333B623B6A092BE4DDFB6A0F4A51
:1005DC0082FB03129210DB17D21AFB681A60BB6AFB
:1005EC000A4A82FB03129210DB17D21ABB681A60FC
:1005FC007B6A064A82FB03129210DB17D21A7B68C5
:10060C001A6000BF3037BD4680BD00BF67666666A6
:10061C0080B500AF00210A4803F068FC00221021CD
:10062C00084801F090FE084B1A88054B1B685A636A
:10063C0000222021034801F086FE00BF80BD00BFD0
:10064C00A0010020000801400400002080B500AF8C
:10065C0001221021044801F076FE0021034803F02A
:10066C0035FD00BF80BD00BF00080140A001002087
:10067C0080B584B000AFF860B9607A60FB68BE2BBF
:10068C000EDDBB68272B0BDC7B68232B08DC1C4B9B
:10069C0001221A60002208211A4801F054FE2AE0B7
:1006AC00FB68592B0EDDBB68692B0BDD7B68292B96
:1006BC0008DD154B01221A6000220821114801F0B7
:1006CC0042FE18E0FB68592B11DCBB68582B0EDD81
:1006DC00BB68632B0BDC7B68552B08DD0B4B0122B5
:1006EC001A6000220821074801F02DFE03E0084B98
:1006FC0001221A6000BF00BF1037BD4680BD00BF8D
:10070C003C020020000C014040020020440200206A
:10071C004802002080B584B000AF78601F4B1B6886
:10072C007A689A4232D01D4B1B687A689A4212D969
:10073C001A4B1B68FB6009E0194B1B68FA685A637B
:10074C00032000F095FFFB680333FB60FB687A68BD
:10075C009A42F1D216E0114B1B687A689A4211D278
:10076C000E4B1B68BB6009E00D4B1B68BA685A63E3
:10077C00032000F07DFFBB68033BBB60BB687A685D
:10078C009A42F1D9054A7B68136003E0044B1B685D
:10079C007A685A6300BF1037BD4680BD0000002048
:1007AC005801002080B584B000AFF860B9607A6061
:1007BC002F4B1B68012B11D12E4B40F2EE221A60ED
:1007CC002C4B1B681846FFF7A5FF294B00221A601B
:1007DC00294B1B680133284A136044E0274B1B68E4
:1007EC00012B10D1234BFA221A60224B1B6818469E
:1007FC00FFF790FF214B00221A60214B1B6801333D
:10080C001F4A13602FE01F4B1B68012B11D1194B92
:10081C0040F297421A60174B1B681846FFF77AFF95
:10082C00184B00221A60184B1B680133164A1360D0
:10083C0019E0164B1B68012B15D101220821144815
:10084C0001F081FD4FF47A7000F012FF00220821B4
:10085C000F4801F078FD0D4B00221A60FFF7F6FEF1
:10086C000C4B00221A7000BF1037BD4680BD00BF74
:10087C003C0200205C0200204C02002040020020C0
:10088C0050020020440200205402002048020020A4
:10089C00000C01400600002080B584B000AFF86069
:1008AC00B9607A60FA681649164805F0D1F8012249
:1008BC0000211548FFF7A6FC12491348FFF705FD68
:1008CC00BA680F49114805F0C3F8012207210E48F8
:1008DC00FFF798FC0D490C48FFF7F7FC7A680849BC
:1008EC000B4805F0B5F801220D210748FFF78AFCEB
:1008FC0007490548FFF7E9FC00BF1037BD4680BD2E
:10090C00D463000860020020300200209402002012
:10091C00C802002080B584B000AFF860B9607A607E
:10092C00002200210748FFF76DFC07490548FFF737
:10093C00CCFC7A68B968F868FFF7AEFF00BF1037D7
:10094C00BD4680BD30020020D863000880B59CB045
:10095C0002AF0821224801F0DFFC03461A46214B66
:10096C001A60204B1B68002B02D11F4B01221A600E
:10097C001C4B1B68012B2FD11B4B1B68012B2BD144
:10098C001A4B1B681A4A11681A4A12681846FFF764
:10099C0009FF194B1968194B1B68194A126838461C
:1009AC00019200930B46174A642105F01DF87866F6
:1009BC007B6E9AB239464FF47A73134804F04EFAB0
:1009CC000D4B1B680D4A11680D4A12681846FFF74B
:1009DC00A1FF054B00221A6000BF6837BD4680BDE1
:1009EC00000801403802002058020020FC020020C0
:1009FC0000030020040300204C02002050020020C1
:100A0C0054020020EC630008E801002080B590B08F
:100A1C0002AF00F0CBFD00F075F800F07FFA00F0AB
:100A2C000BF900F051FA00F063F900F0D7F900F07F
:100A3C00C5F800F02FF9274B274A1A60254B4E2298
:100A4C001A712448FFF7FAFB244B1B68244A1168DF
:100A5C00244A12681846FFF75DFF0021224803F074
:100A6C0045FAFFF7D5FD214B1B78DBB2002B02D0EA
:100A7C00FFF7CEFD06E01D4B1B78DBB2002B01D13E
:100A8C00FFF7E4FD1A4A1B491B48FFF775FD1A4B8B
:100A9C001B68184A1168164A12681846FFF7E8FDD9
:100AAC00FFF754FF144B1968124B1B68104A12685D
:100ABC003846019200930B46104A322104F094FF01
:100ACC0078637B6B9AB239464FF47A730C4804F016
:100ADC00C5F9C8E730020020040100204C020020B8
:100AEC005002002054020020580100200600002073
:100AFC000403002000030020FC02002024640008F2
:100B0C00E801002080B594B000AF07F1280328223B
:100B1C000021184604F0BCFF07F1140300221A60F0
:100B2C005A609A60DA601A613B1D00221A605A60A2
:100B3C009A60DA600123BB624FF48033FB620023BE
:100B4C003B630123BB6302237B644FF48033BB64A0
:100B5C004FF4E013FB6407F12803184602F058FC2D
:100B6C000346002B01D000F079FA0F237B6102239E
:100B7C00BB610023FB614FF480633B6200237B620B
:100B8C0007F114030221184602F0C4FE0346002BA1
:100B9C0001D000F063FA02237B604FF40043FB604A
:100BAC003B1D184603F044F80346002B01D000F01F
:100BBC0055FA00BF5037BD4680BD000080B584B0EB
:100BCC0000AF3B1D00221A605A609A60184B194AFC
:100BDC001A60174B00229A60154B00221A73144BA3
:100BEC0000221A75124B4FF46022DA61104B00226E
:100BFC005A600F4B01221A610D4800F05DFD03464F
:100C0C00002B01D000F02AFA07237B600123BB6084
:100C1C000723FB603B1D1946054800F0F7FE034611
:100C2C00002B01D000F01AFA00BF1037BD4680BD72
:100C3C00800000200024014080B500AF124B134A05
:100C4C001A60114B124A5A600F4B00229A600E4BDD
:100C5C000022DA600C4B4FF480421A610A4B0022DE
:100C6C005A61094B00229A61074B0022DA61064B4C
:100C7C0000221A62044801F097FB0346002B01D0B6
:100C8C0000F0ECF900BF80BDB00000200054004023
:100C9C00801A060080B500AF124B134A1A60114B34
:100CAC00124A5A600F4B00229A600E4B0022DA60F7
:100CBC000C4B4FF480421A610A4B00225A61094BCB
:100CCC0000229A61074B0022DA61064B00221A625D
:100CDC00044801F069FB0346002B01D000F0BEF97B
:100CEC0000BF80BD0401002000580040A086010018
:100CFC0080B58EB000AF07F1280300221A605A604D
:100D0C009A60DA6007F1200300221A605A603B1DDA
:100D1C0000221A605A609A60DA601A615A619A610C
:100D2C002D4B4FF080421A602B4B8F225A602A4B6E
:100D3C0000229A60284B42F20F72DA60264B002296
:100D4C001A61254B00229A61234803F027F80346C9
:100D5C00002B01D000F082F94FF48053BB6207F1F5
:100D6C00280319461C4803F015FC0346002B01D040
:100D7C0000F074F9184803F060F80346002B01D01A
:100D8C0000F06CF900233B6200237B6207F1200327
:100D9C001946114803F0A2FF0346002B01D000F0C6
:100DAC005DF960237B600023BB600023FB600023A4
:100DBC007B613B1D00221946074803F029FB0346C3
:100DCC00002B01D000F04AF9034800F07FFA00BF75
:100DDC003837BD4680BD00BF5801002080B58EB0AD
:100DEC0000AF07F1280300221A605A609A60DA609B
:100DFC0007F1200300221A605A603B1D00221A6082
:100E0C005A609A60DA601A615A619A612C4B2D4AC9
:100E1C001A602B4B47225A60294B00229A60284BB0
:100E2C0040F21F32DA60264B00221A61244B00225A
:100E3C009A61234802F0B2FF0346002B01D000F068
:100E4C000DF94FF48053BB6207F1280319461C4877
:100E5C0003F0A0FB0346002B01D000F0FFF818486C
:100E6C0002F0EBFF0346002B01D000F0F7F8002353
:100E7C003B6200237B6207F120031946104803F004
:100E8C002DFF0346002B01D000F0E8F860237B60B7
:100E9C000023BB600023FB6000237B613B1D002211
:100EAC001946074803F0B4FA0346002B01D000F0B2
:100EBC00D5F8034800F00AFA00BF3837BD4680BDAC
:100ECC00A00100200004004080B500AF114B124A75
:100EDC001A60104B4FF416525A600E4B00229A6057
:100EEC000C4B0022DA600B4B00221A61094B0C22CE
:100EFC005A61084B00229A61064B0022DA610548C0
:100F0C0003F05CFF0346002B01D000F0A7F800BFF4
:100F1C0080BD00BFE80100200038014080B588B0DA
:100F2C0000AF07F1100300221A605A609A60DA6071
:100F3C003D4B9B693C4A43F0200393613A4B9B69C0
:100F4C0003F02003FB60FB68374B9B69364A43F088
:100F5C0004039361344B9B6903F00403BB60BB68CF
:100F6C00314B9B69304A43F0080393612E4B9B69CC
:100F7C0003F008037B607B68002230212B4801F0D2
:100F8C00E2F9002208212A4801F0DDF908233B612F
:100F9C0000237B610223BB6107F110031946234830
:100FAC0001F036F830233B6101237B610023BB61E8
:100FBC000223FB6107F1100319461C4801F028F8C5
:100FCC004FF480633B6100237B610023BB6107F11D
:100FDC0010031946154801F01BF808233B61012347
:100FEC007B610223BB610223FB6107F110031946ED
:100FFC000F4801F00DF820233B610E4B7B61012360
:10100C00BB6107F110031946094801F001F80022F1
:10101C000021172000F013FF172000F02CFF00BF59
:10102C002037BD4680BD00BF0010024000080140C3
:10103C00000C01400000211080B483B000AF0346C7
:10104C00FB80FB88202B02D1034B01221A7000BFBE
:10105C000C37BD4680BC70470600002080B400AF42
:10106C0072B600BF00BFFDE780B485B000AF154B72
:10107C009B69144A43F001039361124B9B6903F083
:10108C000103BB60BB680F4BDB690E4A43F0805316
:10109C00D3610C4BDB6903F080537B607B680A4B9C
:1010AC005B68FB60FB6823F0E063FB60FB6843F06C
:1010BC000073FB60044AFB68536000BF1437BD46E5
:1010CC0080BC7047001002400000014080B588B021
:1010DC0000AF786007F1100300221A605A609A6022
:1010EC00DA607B681B68184A934229D1174B9B69BD
:1010FC00164A43F400739361144B9B6903F4007319
:10110C00FB60FB68114B9B69104A43F0040393612D
:10111C000E4B9B6903F00403BB60BB6880233B61EF
:10112C0003237B6107F110031946094800F070FF97
:10113C0000220021122000F082FE122000F09BFE03
:10114C0000BF2037BD4680BD002401400010024086
:10115C000008014080B58CB000AF786007F11C032B
:10116C0000221A605A609A60DA607B681B68324A07
:10117C00934233D1314B9B69304A43F0080393615E
:10118C002E4B9B6903F00803BB61BB694FF44073A2
:10119C00FB6112233B620323BB6207F11C0319465C
:1011AC00274800F035FF274B5B68FB62FB6A43F076
:1011BC00E063FB62FB6A43F00203FB62214AFB6AB9
:1011CC0053601E4BDB691D4A43F40013D3611B4B68
:1011DC00DB6903F400137B617B6929E07B681B6886
:1011EC00194A934224D1154B9B69144A43F00803C6
:1011FC009361124B9B6903F008033B613B694FF40D
:10120C004063FB6112233B620323BB6207F11C03A7
:10121C0019460B4800F0FCFE084BDB69074A43F407
:10122C008003D361054BDB6903F48003FB60FB682F
:10123C0000BF3037BD4680BD005400400010024056
:10124C00000C0140000001400058004080B584B003
:10125C0000AF78607B681B68B3F1804F14D1194BD9
:10126C00DB69184A43F00103D361164BDB6903F0C9
:10127C000103FB60FB68002200211C2000F0DFFD55
:10128C001C2000F0F8FD18E07B681B680E4A9342A6
:10129C0013D10C4BDB690B4A43F00203D361094BAE
:1012AC00DB6903F00203BB60BB68002200211D2038
:1012BC0000F0C5FD1D2000F0DEFD00BF1037BD465F
:1012CC0080BD00BF001002400004004080B588B013
:1012DC0000AF786007F1100300221A605A609A6020
:1012EC00DA607B681B68B3F1804F18D11C4B9B698B
:1012FC001B4A43F004039361194B9B6903F00403ED
:10130C00FB60FB6801233B6102237B610223FB61D1
:10131C0007F110031946134800F07AFE1CE07B68B5
:10132C001B68114A934217D10D4B9B690C4A43F031
:10133C00040393610A4B9B6903F00403BB60BB6815
:10134C0040233B6102237B610223FB6107F1100305
:10135C001946044800F05CFE00BF2037BD4680BD36
:10136C0000100240000801400004004080B58AB023
:10137C0000AF786007F1140300221A605A609A607B
:10138C00DA607B681B68264A934245D1254B9B69E2
:10139C00244A43F480439361224B9B6903F48043BA
:1013AC003B613B691F4B9B691E4A43F008039361E9
:1013BC001C4B9B6903F00803FB60FB6840237B61BB
:1013CC000223BB6103233B6207F114031946164841
:1013DC0000F01EFE80237B610023BB610023FB61B8
:1013EC0007F114031946104800F012FE0F4B5B680E
:1013FC007B627B6A43F0E0637B627B6A43F00403AD
:10140C007B620A4A7B6A536000220121252000F08E
:10141C0016FD252000F02FFD00BF2837BD4680BDEE
:10142C000038014000100240000C01400000014057
:10143C0080B400AF00BFFDE780B400AF00BFFDE794
:10144C0080B400AF00BFFDE780B400AF00BFFDE784
:10145C0080B400AF00BFFDE780B400AF00BFBD4655
:10146C0080BC704780B400AF00BFBD4680BC7047E5
:10147C0080B400AF00BFBD4680BC704780B500AFE4
:10148C0000F0DAF800BF80BD80B500AF024800F074
:10149C00EBF900BF80BD00BF8000002080B500AF1D
:1014AC00202000F069FF00BF80BD000080B500AFB8
:1014BC00024802F0BDFE00BF80BD00BF58010020F5
:1014CC0080B500AF024802F0B3FE00BF80BD00BF84
:1014DC00A001002080B500AF024803F04BFD00BF17
:1014EC0080BD00BFE801002080B586B000AF7860F9
:1014FC00144A154BD31A7B617B693B61134B1B68F8
:10150C00002B02D1114B124A1A60104B1A687B68DF
:10151C0013443A699A4207D204F0C2FA03460C22E9
:10152C001A604FF0FF3309E0084B1B68FB60074B58
:10153C001A687B681344054A1360FB681846183711
:10154C00BD4680BD005000200004000008030020B0
:10155C005804002080B400AF00BFBD4680BC70476B
:10156C00FFF7F8FF0B480C490C4A002302E0D45853
:10157C00C4500433C4188C42F9D3094A094C0023D3
:10158C0001E013600432A242FBD304F08FFAFFF7A0
:10159C003DFA70470000002064000020AC64000895
:1015AC006400002058040020FEE7000080B500AF66
:1015BC00084B1B68074A43F010031360032000F02C
:1015CC0033FC0F2000F008F8FFF74EFD00231846FF
:1015DC0080BD00BF0020024080B582B000AF7860B3
:1015EC00124B1A68124B1B7819464FF47A73B3FBE3
:1015FC00F1F3B2FBF3F3184600F04BFC0346002B5F
:10160C0001D001230EE07B680F2B0AD800227968E9
:10161C004FF0FF3000F013FC064A7B681360002388
:10162C0000E0012318460837BD4680BD08000020A5
:10163C00100000200C00002080B400AF054B1B787C
:10164C001A46054B1B681344034A136000BFBD4682
:10165C0080BC7047100000200C03002080B400AF49
:10166C00024B1B681846BD4680BC70470C0300201B
:10167C0080B584B000AF7860FFF7F0FFB8607B688E
:10168C00FB60FB68B3F1FF3F05D00A4B1B781A4691
:10169C00FB681344FB6000BFFFF7E0FF0246BB682A
:1016AC00D31AFA689A42F7D800BF00BF1037BD466C
:1016BC0080BD00BF1000002080B586B000AF786000
:1016CC000023FB7500233B610023BB600023FB6000
:1016DC007B68002B01D10123BEE07B689B68002B4B
:1016EC007B689B6A002B09D17B680022DA627B68DD
:1016FC00002283F824207868FFF7E8FC786800F073
:10170C007DFA0346FB757B689B6A03F01003002B84
:10171C0040F09980FB7D002B40F095807B689B6AA4
:10172C0023F4885323F0020343F002027B689A628D
:10173C007B685A687B68DB691A437B681B7B5B00A0
:10174C001343BA681343BB607B689B68B3F5807F17
:10175C0003D07B689B68012B02D14FF4807300E0AF
:10176C0000233A6913433B617B681B7D012B19D124
:10177C007B681B7B002B09D17B689B69013B5A035F
:10178C003B69134343F400633B610BE07B689B6A4A
:10179C0043F020027B689A627B68DB6A43F00102AB
:1017AC007B68DA627B681B685B6823F469417B6841
:1017BC001B683A690A435A607B681B689A68284B15
:1017CC0013407A681268B9680B4393607B689B6816
:1017DC00B3F5807F03D07B689B68012B04D17B68B9
:1017EC001B69013B1B05FB607B681B68DB6A23F4F0
:1017FC0070017B681B68FA680A43DA627B681B68B5
:10180C009A68184B1340BA689A420BD17B68002235
:10181C00DA627B689B6A23F0030343F001027B6866
:10182C009A6218E07B689B6A23F0120343F0100263
:10183C007B689A627B68DB6A43F001027B68DA6240
:10184C000123FB7507E07B689B6A43F010027B6801
:10185C009A620123FB75FB7D18461837BD4680BD87
:10186C00FDF7E1FFFE0E1FFF80B584B000AF78607E
:10187C007B681B681B68FB607B681B685B68BB60D4
:10188C00BB6803F02003002B3ED0FB6803F002037F
:10189C00002B39D07B689B6A03F01003002B05D119
:1018AC007B689B6A43F400727B689A627B681B6856
:1018BC009B6803F46023B3F5602F1DD17B681B7B01
:1018CC00002B19D17B681B685A687B681B6822F057
:1018DC0020025A607B689B6A23F480727B689A6250
:1018EC007B689B6A03F48053002B05D17B689B6A51
:1018FC0043F001027B689A62786800F074F87B68A8
:10190C001B686FF012021A60BB6803F08003002B97
:10191C004DD0FB6803F00403002B48D07B689B6A16
:10192C0003F01003002B05D17B689B6A43F4005233
:10193C007B689A627B681B689B6803F4E043B3F591
:10194C00E04F12D07B681B685B6803F48063002B4C
:10195C0025D17B681B689B6803F46023B3F5602F6B
:10196C001DD17B681B7B002B19D17B681B685A68C7
:10197C007B681B6822F080025A607B689B6A23F4A8
:10198C0080527B689A627B689B6A03F48073002B9D
:10199C0005D17B689B6A43F001027B689A62786888
:1019AC0000F06DF97B681B686FF00C021A60BB6865
:1019BC0003F04003002B12D0FB6803F00103002B53
:1019CC000DD07B689B6A43F480327B689A6278689E
:1019DC0000F012F87B681B686FF001021A6000BF00
:1019EC001037BD4680BD80B483B000AF786000BFB7
:1019FC000C37BD4680BC704780B483B000AF7860B4
:101A0C0000BF0C37BD4680BC7047000080B485B069
:101A1C0000AF786039600023FB730023BB607B68E8
:101A2C0093F82430012B01D10223DCE07B680122E6
:101A3C0083F824203B685B68062B1CD87B681B68EA
:101A4C00596B3B685A6813469B001344053B1F2295
:101A5C0002FA03F3DB4319403B6818683B685A6889
:101A6C0013469B001344053B00FA03F27B681B688A
:101A7C000A435A633CE03B685B680C2B1CD87B68C0
:101A8C001B68196B3B685A6813469B001344233B35
:101A9C001F2202FA03F3DB4319403B6818683B68CA
:101AAC005A6813469B001344233B00FA03F27B68ED
:101ABC001B680A431A631BE07B681B68D96A3B6886
:101ACC005A6813469B001344413B1F2202FA03F34E
:101ADC00DB4319403B6818683B685A6813469B0007
:101AEC001344413B00FA03F27B681B680A43DA6239
:101AFC003B681B68092B1CD97B681B68D9683B6841
:101B0C001A6813465B0013441E3B072202FA03F3C8
:101B1C00DB4319403B6898683B681A6813465B00C6
:101B2C0013441E3B00FA03F27B681B680A43DA601D
:101B3C0019E07B681B6819693B681A6813465B00DF
:101B4C001344072202FA03F3DB4319403B689868FD
:101B5C003B681A6813465B00134400FA03F27B6877
:101B6C001B680A431A613B681B68102B03D03B6847
:101B7C001B68112B32D17B681B681D4A934225D1FF
:101B8C007B681B689B6803F40003002B26D17B68E1
:101B9C001B689A687B681B6842F400029A603B6879
:101BAC001B68102B1AD1134B1B68134AA2FB03237F
:101BBC009A0C13469B0013445B00BB6002E0BB68AD
:101BCC00013BBB60BB68002BF9D107E07B689B6ACB
:101BDC0043F020027B689A620123FB737B6800222E
:101BEC0083F82420FB7B18461437BD4680BC704715
:101BFC00002401400800002083DE1B4380B584B024
:101C0C0000AF78600023FB607B681B689B6803F067
:101C1C000103012B2ED17B681B689A687B681B68BB
:101C2C0022F001029A60FFF719FDF8601BE0FFF744
:101C3C0015FD0246FB68D31A022B14D97B681B686E
:101C4C009B6803F00103012B0DD17B689B6A43F069
:101C5C0010027B689A627B68DB6A43F001027B6846
:101C6C00DA62012307E07B681B689B6803F00103C1
:101C7C00012BDCD0002318461037BD4680BD80B444
:101C8C0083B000AF786000BF0C37BD4680BC704796
:101C9C0080B485B000AF78607B6803F00703FB600D
:101CAC000C4BDB68BB60BA684FF6FF031340BB609C
:101CBC00FB681A02BB68134343F0BF6343F4003361
:101CCC00BB60044ABB68D36000BF1437BD4680BC00
:101CDC00704700BF00ED00E080B400AF044BDB6840
:101CEC001B0A03F007031846BD4680BC704700BFB3
:101CFC0000ED00E080B483B000AF0346FB7197F9B0
:101D0C000730002B0BDBFB7903F01F02064997F918
:101D1C0007305B09012000FA02F241F8232000BFD2
:101D2C000C37BD4680BC704700E100E080B483B046
:101D3C0000AF03463960FB7197F90730002B0ADBC3
:101D4C003B68DAB20C4997F907301201D2B20B4456
:101D5C0083F800230AE03B68DAB20849FB7903F008
:101D6C000F03043B1201D2B20B441A7600BF0C379E
:101D7C00BD4680BC704700BF00E100E000ED00E014
:101D8C0080B489B000AFF860B9607A60FB6803F08A
:101D9C000703FB61FB69C3F10703042B28BF042372
:101DAC00BB61FB690433062B02D9FB69033B00E0E2
:101DBC0000237B614FF0FF32BB6902FA03F3DA4375
:101DCC00BB681A407B699A404FF0FF317B6901FA7E
:101DDC0003F3D9437B680B40134318462437BD46A5
:101DEC0080BC704780B582B000AF78607B68013BE7
:101DFC00B3F1807F01D301230FE00A4A7B68013BDA
:101E0C0053600F214FF0FF30FFF790FF054B00227E
:101E1C009A60044B07221A60002318460837BD4607
:101E2C0080BD00BF10E000E080B582B000AF7860EC
:101E3C007868FFF72DFF00BF0837BD4680BD80B521
:101E4C0086B000AF0346B9607A60FB7300237B61F8
:101E5C00FFF742FF78617A68B9687869FFF790FFFD
:101E6C00024697F90F3011461846FFF75FFF00BF87
:101E7C001837BD4680BD80B582B000AF0346FB71FC
:101E8C0097F907301846FFF735FF00BF0837BD46F6
:101E9C0080BD80B582B000AF78607868FFF7A2FF94
:101EAC00034618460837BD4680BD80B485B000AFE8
:101EBC0078600023FB737B6893F82130DBB2022B34
:101ECC0008D07B6804229A637B68002283F8202068
:101EDC00012320E07B681B681A687B681B6822F072
:101EEC000E021A607B681B681A687B681B6822F0FC
:101EFC0001021A607B681A6C7B68DB6B012101FAAA
:101F0C0002F25A607B68012283F821207B68002250
:101F1C0083F82020FB7B18461437BD4680BC7047E5
:101F2C0080B584B000AF78600023FB737B6893F8B6
:101F3C002130DBB2022B05D07B6804229A6301238B
:101F4C00FB7351E07B681B681A687B681B6822F086
:101F5C000E021A607B681B681A687B681B6822F08B
:101F6C0001021A607B681B68224A934229D07B6865
:101F7C001B68214A934222D07B681B681F4A9342FC
:101F8C001AD07B681B681E4A934212D07B681B6870
:101F9C001C4A93420AD07B681B681B4A934202D1AD
:101FAC004FF480130EE04FF080730BE04FF480334E
:101FBC0008E04FF4805305E04FF4807302E01023E7
:101FCC0000E00123114A53607B68012283F8212031
:101FDC007B68002283F820207B685B6B002B03D08E
:101FEC007B685B6B78689847FB7B18461037BD465F
:101FFC0080BD00BF080002401C00024030000240BF
:10200C0044000240580002406C00024000000240B4
:10201C0080B48BB000AF7860396000237B62002302
:10202C003B6269E101227B6A02FA03F3FB613B68C4
:10203C001B68FA691340BB61BA69FB699A4240F0AC
:10204C0058813B685B689A4A93425ED0984A9342A7
:10205C0075D8984A934258D0964A93426FD8964A6C
:10206C00934252D0944A934269D8944A93424CD0AA
:10207C00924A934263D8924A934246D0904A9342F2
:10208C005DD8122B2AD8122B59D801A252F823F062
:10209C0017210008F1200008032100084521000841
:1020AC004B2100084B2100084B2100084B21000854
:1020BC004B2100084B2100084B2100084B21000844
:1020CC004B2100084B2100084B2100084B21000834
:1020DC004B210008F92000080D210008794A934291
:1020EC0013D02CE03B68DB683B6229E03B68DB6883
:1020FC0004333B6224E03B68DB6808333B621FE03F
:10210C003B68DB680C333B621AE03B689B68002B36
:10211C0002D104233B6213E03B689B68012B05D181
:10212C0008233B627B68FA691A6109E008233B6269
:10213C007B68FA695A6103E000233B6200E000BF50
:10214C00BB69FF2B01D87B6801E07B6804337B61A2
:10215C00BB69FF2B02D87B6A9B0002E07B6A083BC1
:10216C009B003B617B691A680F213B6901FA03F301
:10217C00DB431A40396A3B6901FA03F31A437B6962
:10218C001A603B685B6803F08053002B00F0B18051
:10219C004D4B9B694C4A43F0010393614A4B9B693D
:1021AC0003F00103BB60BB68484A7B6A9B0802339F
:1021BC0052F82330FB607B6A03F003039B000F2271
:1021CC0002FA03F3DB43FA681340FB607B68404A76
:1021DC00934213D07B683F4A93420DD07B683E4AB2
:1021EC00934207D07B683D4A934201D1032306E01A
:1021FC00042304E0022302E0012300E000237A6AB6
:10220C0002F0030292009340FA681343FB602F49DB
:10221C007B6A9B080233FA6841F823203B685B68B1
:10222C0003F48013002B06D02D4B9A682C49BB6904
:10223C0013438B6006E02A4B9A68BB69DB43284941
:10224C0013408B603B685B6803F40013002B06D0D3
:10225C00234BDA682249BB691343CB6006E0204B61
:10226C00DA68BB69DB431E491340CB603B685B6893
:10227C0003F40033002B06D0194B5A681849BB697C
:10228C0013434B6006E0164B5A68BB69DB43144999
:10229C0013404B603B685B6803F48033002B21D008
:1022AC000F4B1A680E49BB6913430B6021E000BF4A
:1022BC00000032100000311000002210000021102C
:1022CC00000012100000111000100240000001402C
:1022DC0000080140000C01400010014000140140B6
:1022EC00000401400B4B1A68BB69DB4309491340DE
:1022FC000B607B6A01337B623B681A687B6A22FA4B
:10230C0003F3002B7FF48EAE00BF00BF2C37BD460D
:10231C0080BC70470004014080B485B000AF786089
:10232C000B467B807B689A687B881340002B02D01D
:10233C000123FB7301E00023FB73FB7B184614376E
:10234C00BD4680BC704780B483B000AF78600B464C
:10235C007B8013467B707B78002B03D07A887B685C
:10236C001A6103E07B881A047B681A6100BF0C3782
:10237C00BD4680BC7047000080B582B000AF0346FC
:10238C00FB80084B5A69FB881340002B06D0054A8A
:10239C00FB885361FB881846FEF74EFE00BF0837DA
:1023AC00BD4680BD0004014080B584B000AF7860AC
:1023BC007B68002B01D101232BE17B6893F83D3026
:1023CC00DBB2002B06D17B68002283F83C207868B6
:1023DC00FEF7C0FE7B68242283F83D207B681B68D7
:1023EC001A687B681B6822F001021A607B681B6804
:1023FC001A687B681B6842F400421A607B681B6891
:10240C001A687B681B6822F400421A6001F0CAFB50
:10241C00F8607B685B68814A934207D8FB68804A06
:10242C00934294BF01230023DBB206E0FB687D4A94
:10243C00934294BF01230023DBB2002B01D0012374
:10244C00E7E0FB68784AA2FB03239B0CBB607B682C
:10245C001B685B6823F03F017B681B68BA680A4302
:10246C005A607B681B681B6A23F03F017B685B68C2
:10247C006A4A934202D8BB68013309E0BB684FF447
:10248C00967202FB03F3694AA2FB03239B090133F7
:10249C007A6812680B4313627B681B68DB6923F450
:1024AC004F4222F0FF027B685B685C498B4219D873
:1024BC00FB68591E7B685B685B00B1FBF3F3591C2E
:1024CC0040F6FC730B40002B0AD0FB68591E7B684E
:1024DC005B685B00B1FBF3F30133C3F30B0351E017
:1024EC0004234FE07B689B68002B11D1FB68581EBE
:1024FC007B6859680B465B000B44B0FBF3F301336C
:10250C00C3F30B03002B0CBF01230023DBB212E03F
:10251C00FB68581E7B6859680B469B000B4499005E
:10252C000B44B0FBF3F30133C3F30B03002B0CBFD1
:10253C0001230023DBB2002B01D0012322E07B68B6
:10254C009B68002B0ED1FB68581E7B6859680B46A4
:10255C005B000B44B0FBF3F30133C3F30B0343F405
:10256C0000430FE0FB68581E7B6859680B469B00C4
:10257C000B4499000B44B0FBF3F30133C3F30B038F
:10258C0043F44043796809681343CB617B681B684B
:10259C001B6823F0C0017B68DA697B681B6A1A43ED
:1025AC007B681B680A431A607B681B689B6823F472
:1025BC00034323F0FF037A6811697A68D2681143E8
:1025CC007A6812680B4393607B681B68DB6823F0A6
:1025DC00FF017B685A697B689B691A437B681B689F
:1025EC000A43DA607B681B681A687B681B6842F0D8
:1025FC0001021A607B6800221A647B68202283F82F
:10260C003D207B6800221A637B68002283F83E2001
:10261C00002318461037BD4680BD00BFA0860100C0
:10262C007F841E00FF083D0083DE1B43D34D6210E8
:10263C0080B588B002AFF8607A601A460B467B8191
:10264C0013463B81FFF70AF87861FB6893F83D303D
:10265C00DBB2202B40F0E0807B6900931923012230
:10266C007049F86800F09EFC0346002B01D0022351
:10267C00D3E0FB6893F83C30012B01D10223CCE072
:10268C00FB68012283F83C20FB681B681B6803F085
:10269C000103012B07D0FB681B681A68FB681B68D9
:1026AC0042F001021A60FB681B681A68FB681B6821
:1026BC0022F400621A60FB68212283F83D20FB683B
:1026CC00102283F83E20FB6800221A64FB687A68AB
:1026DC005A62FB683A895A85FB685B8D9AB2FB6833
:1026EC001A85FB68504ADA6279897B693A6AF8681C
:1026FC0000F008FB0346002B01D001238DE00023E2
:10270C003B61FB681B685B693B61FB681B689B69F1
:10271C003B613B6966E07A69396AF86800F05CFDF8
:10272C000346002B0DD0FB681B6C042B07D1FB68F8
:10273C001B681A68FB681B6842F400721A6001235C
:10274C006BE0FB685B6A1A78FB681B681A61FB68B4
:10275C005B6A5A1CFB685A62FB685B8D9BB2013B3F
:10276C009AB2FB685A85FB681B8D013B9AB2FB68D9
:10277C001A85FB681B685B6903F00403042B1BD1EF
:10278C00FB681B8D002B17D0FB685B6A1A78FB6803
:10279C001B681A61FB685B6A5A1CFB685A62FB680F
:1027AC005B8D9BB2013B9AB2FB685A85FB681B8D13
:1027BC00013B9AB2FB681A857A69396AF86800F0AD
:1027CC0053FD0346002B0DD0FB681B6C042B07D16B
:1027DC00FB681B681A68FB681B6842F400721A607D
:1027EC0001231AE0FB681B8D002B94D1FB681B683E
:1027FC001A68FB681B6842F400721A60FB6820229E
:10280C0083F83D20FB68002283F83E20FB68002201
:10281C0083F83C20002300E0022318461837BD46FD
:10282C0080BD00BF020010000000FFFF80B58CB01F
:10283C0002AFF8607A601A460B467B8113463B81E7
:10284C0000233B62FEF70AFF7862FB6893F83D3089
:10285C00DBB2202B40F04B827B6A009319230122C0
:10286C007F49F86800F09EFB0346002B01D0022341
:10287C003EE2FB6893F83C30012B01D1022337E296
:10288C00FB68012283F83C20FB681B681B6803F083
:10289C000103012B07D0FB681B681A68FB681B68D7
:1028AC0042F001021A60FB681B681A68FB681B681F
:1028BC0022F400621A60FB68222283F83D20FB6838
:1028CC00102283F83E20FB6800221A64FB687A68A9
:1028DC005A62FB683A895A85FB685B8D9AB2FB6831
:1028EC001A85FB685F4ADA6279897B6A3A6BF86809
:1028FC0000F08AFA0346002B01D00123F8E1FB68B3
:10290C001B8D002B13D10023FB61FB681B685B69DB
:10291C00FB61FB681B689B69FB61FB69FB681B68BF
:10292C001A68FB681B6842F400721A60CCE1FB6801
:10293C001B8D012B1ED1FB681B681A68FB681B687A
:10294C0022F480621A6072B600BF0023BB61FB6880
:10295C001B685B69BB61FB681B689B69BB61BB69DE
:10296C00FB681B681A68FB681B6842F400721A60EB
:10297C0062B635E0FB681B8D022B1ED1FB681B6811
:10298C001A68FB681B6842F400621A6072B600BFDA
:10299C0000237B61FB681B685B697B61FB681B68C0
:1029AC009B697B617B69FB681B681A68FB681B6809
:1029BC0022F480621A6062B612E0FB681B681A6827
:1029CC00FB681B6842F480621A6000233B61FB6861
:1029DC001B685B693B61FB681B689B693B613B69DE
:1029EC0072E1FB681B8D032B00F21F81FB681B8DB2
:1029FC00012B23D17A6A396BF86800F07DFC034611
:102A0C00002B01D0012373E1FB681B681A69FB687A
:102A1C005B6AD2B21A70FB685B6A5A1CFB685A621A
:102A2C00FB681B8D013B9AB2FB681A85FB685B8DBA
:102A3C009BB2013B9AB2FB685A8545E1FB681B8D42
:102A4C00022B52D17B6A00933B6B00220649F8683B
:102A5C0000F0A8FA0346002B08D0012348E100BF80
:102A6C00020010000000FFFF0400010072B600BF5E
:102A7C00FB681B681A68FB681B6842F400721A60DA
:102A8C00FB681B681A69FB685B6AD2B21A70FB6838
:102A9C005B6A5A1CFB685A62FB681B8D013B9AB23D
:102AAC00FB681A85FB685B8D9BB2013B9AB2FB6895
:102ABC005A8562B600BFFB681B681A69FB685B6AC3
:102ACC00D2B21A70FB685B6A5A1CFB685A62FB68CC
:102ADC001B8D013B9AB2FB681A85FB685B8D9BB220
:102AEC00013B9AB2FB685A85EEE07B6A00933B6B24
:102AFC0000228149F86800F055FA0346002B01D0FA
:102B0C000123F5E0FB681B681A68FB681B6822F45C
:102B1C0080621A6072B600BFFB681B681A69FB689A
:102B2C005B6AD2B21A70FB685B6A5A1CFB685A6209
:102B3C00FB681B8D013B9AB2FB681A85FB685B8DA9
:102B4C009BB2013B9AB2FB685A856C4B1B68DB0845
:102B5C006B4AA2FB03231A0A13469B001344DA00A8
:102B6C00D31A3B623B6A013B3B623B6A002B18D198
:102B7C00FB6800221A63FB68202283F83D20FB6867
:102B8C00002283F83E20FB681B6C43F02002FB689C
:102B9C001A6462B600BFFB68002283F83C20012354
:102BAC00A6E0FB681B685B6903F00403042BD9D116
:102BBC00FB681B681A68FB681B6842F400721A6099
:102BCC00FB681B681A69FB685B6AD2B21A70FB68F7
:102BDC005B6A5A1CFB685A62FB681B8D013B9AB2FC
:102BEC00FB681A85FB685B8D9BB2013B9AB2FB6854
:102BFC005A8562B600BFFB681B681A69FB685B6A82
:102C0C00D2B21A70FB685B6A5A1CFB685A62FB688A
:102C1C001B8D013B9AB2FB681A85FB685B8D9BB2DE
:102C2C00013B9AB2FB685A854EE07A6A396BF868B8
:102C3C0000F062FB0346002B01D0012358E0FB6837
:102C4C001B681A69FB685B6AD2B21A70FB685B6A14
:102C5C005A1CFB685A62FB681B8D013B9AB2FB68DD
:102C6C001A85FB685B8D9BB2013B9AB2FB685A8557
:102C7C00FB681B685B6903F00403042B24D1FB681D
:102C8C001B8D032B07D1FB681B681A68FB681B683C
:102C9C0022F480621A60FB681B681A69FB685B6A25
:102CAC00D2B21A70FB685B6A5A1CFB685A62FB68EA
:102CBC001B8D013B9AB2FB681A85FB685B8D9BB23E
:102CCC00013B9AB2FB685A85FB681B8D002B7FF485
:102CDC0088AEFB68202283F83D20FB68002283F835
:102CEC003E20FB68002283F83C20002300E00223F6
:102CFC0018462837BD4680BD04000100080000209E
:102D0C0089B5F81480B588B002AFF8607A603B6082
:102D1C000B467B81FB68DB6A7B617B69082B06D0E9
:102D2C007B69012B03D07B6913F5803F08D1FB68CD
:102D3C001B681A68FB681B6842F480721A600BE00F
:102D4C00FB681B6B122B07D1FB681B681A68FB68AE
:102D5C001B6842F480721A603B6800937B68002207
:102D6C004FF00111F86800F01DF90346002B0DD04F
:102D7C00FB681B681B6803F48073B3F5807F03D179
:102D8C00FB684FF400721A64032335E0FB681B697F
:102D9C00B3F5804F08D17B89DBB21A46FB681B6800
:102DAC0002F0FE021A611BE07B89DB11DBB203F03F
:102DBC000603DBB263F00F03DAB2FB681B681A611F
:102DCC003B687A680E49F86800F066F90346002BF8
:102DDC0001D0012310E07B89DAB2FB681B681A6111
:102DEC003B687A680749F86800F056F90346002BEF
:102DFC0001D0012300E0002318461837BD4680BDE2
:102E0C00080001000200010080B588B002AFF86034
:102E1C007A603B600B467B81FB68DB6A7B61FB68FD
:102E2C001B681A68FB681B6842F480621A607B6935
:102E3C00082B06D07B69012B03D07B6913F5803FEF
:102E4C0008D1FB681B681A68FB681B6842F4807227
:102E5C001A600BE0FB681B6B112B07D1FB681B681E
:102E6C001A68FB681B6842F480721A603B68009316
:102E7C007B6800224FF00111F86800F093F80346CC
:102E8C00002B0DD0FB681B681B6803F48073B3F533
:102E9C00807F03D1FB684FF400721A64032379E03E
:102EAC00FB681B69B3F5804F08D17B89DBB243F01B
:102EBC000103DAB2FB681B681A615FE07B89DB11E6
:102ECC00DBB203F00603DBB263F00F03DAB2FB688C
:102EDC001B681A613B687A683049F86800F0DCF8C6
:102EEC000346002B01D0012354E07B89DAB2FB6846
:102EFC001B681A613B687A682949F86800F0CCF8BD
:102F0C000346002B01D0012344E000233B61FB6806
:102F1C001B685B693B61FB681B689B693B613B6998
:102F2C00FB681B681A68FB681B6842F480721A60A5
:102F3C003B6800937B6800224FF00111F86800F0A9
:102F4C0031F80346002B0DD0FB681B681B6803F49B
:102F5C008073B3F5807F03D1FB684FF400721A6461
:102F6C00032317E07B89DB11DBB203F00603DBB232
:102F7C0063F00E03DAB2FB681B681A613B687A686F
:102F8C000749F86800F088F80346002B01D00123AC
:102F9C0000E0002318461837BD4680BD080001002C
:102FAC000200010080B584B000AFF860B9603B60EE
:102FBC001346FB7148E03B68B3F1FF3F44D0FEF78A
:102FCC004DFB0246BB69D31A3A689A4202D33B685E
:102FDC00002B39D1BB681B0CDBB2012B0DD1FB686C
:102FEC001B685B69DA43BB6813409BB2002B0CBFB8
:102FFC0001230023DBB21A460CE0FB681B689B69BB
:10300C00DA43BB6813409BB2002B0CBF0123002397
:10301C00DBB21A46FB799A4216D1FB6800221A637E
:10302C00FB68202283F83D20FB68002283F83E20B9
:10303C00FB681B6C43F02002FB681A64FB680022DF
:10304C0083F83C20012323E0BB681B0CDBB2012B73
:10305C000DD1FB681B685B69DA43BB6813409BB2FC
:10306C00002B0CBF01230023DBB21A460CE0FB68DB
:10307C001B689B69DA43BB6813409BB2002B0CBFE7
:10308C0001230023DBB21A46FB799A4293D000232A
:10309C0018461037BD4680BD80B584B000AFF860CF
:1030AC00B9607A603B6071E0FB681B685B6903F494
:1030BC008063B3F5806F23D1FB681B681A68FB68CB
:1030CC001B6842F400721A60FB681B686FF4806224
:1030DC005A61FB6800221A63FB68202283F83D20AA
:1030EC00FB68002283F83E20FB681B6C43F0040253
:1030FC00FB681A64FB68002283F83C20012367E01C
:10310C007B68B3F1FF3F41D0FEF7A8FA02463B685B
:10311C00D31A7A689A4202D37B68002B36D1BB68EB
:10312C001B0CDBB2012B0CD1FB681B685B69DA430F
:10313C00BB6813409BB2002B14BF01230023DBB2EE
:10314C000BE0FB681B689B69DA43BB6813409BB2BE
:10315C00002B14BF01230023DBB2002B16D0FB681D
:10316C0000221A63FB68202283F83D20FB680022B2
:10317C0083F83E20FB681B6C43F02002FB681A644A
:10318C00FB68002283F83C20012321E0BB681B0C68
:10319C00DBB2012B0CD1FB681B685B69DA43BB68A3
:1031AC0013409BB2002B14BF01230023DBB20BE0B6
:1031BC00FB681B689B69DA43BB6813409BB2002B0E
:1031CC0014BF01230023DBB2002B7FF46DAF00236F
:1031DC0018461037BD4680BD80B584B000AFF8608E
:1031EC00B9607A6034E0F86800F0E3F80346002B2D
:1031FC0001D0012334E0BB68B3F1FF3F28D0FEF7C8
:10320C002DFA02467B68D31ABA689A4202D3BB687D
:10321C00002B1DD1FB681B685B6903F08003802BBE
:10322C0016D0FB6800221A63FB68202283F83D202D
:10323C00FB68002283F83E20FB681B6C43F02002E5
:10324C00FB681A64FB68002283F83C20012307E02A
:10325C00FB681B685B6903F08003802BC3D10023E0
:10326C0018461037BD4680BD80B584B000AFF860FD
:10327C00B9607A6034E0F86800F09BF80346002BE4
:10328C0001D0012334E0BB68B3F1FF3F28D0FEF737
:10329C00E5F902467B68D31ABA689A4202D3BB6836
:1032AC00002B1DD1FB681B685B6903F00403042B26
:1032BC0016D0FB6800221A63FB68202283F83D209D
:1032CC00FB68002283F83E20FB681B6C43F0200255
:1032DC00FB681A64FB68002283F83C20012307E09A
:1032EC00FB681B685B6903F00403042BC3D1002348
:1032FC0018461037BD4680BD80B584B000AFF8606D
:10330C00B9607A6049E0FB681B685B6903F01003E5
:10331C00102B19D1FB681B686FF010025A61FB6807
:10332C0000221A63FB68202283F83D20FB680022F0
:10333C0083F83E20FB681A6CFB681A64FB68002259
:10334C0083F83C20012330E0FEF788F902467B68C5
:10335C00D31ABA689A4202D3BB68002B1DD1FB6802
:10336C001B685B6903F04003402B16D0FB680022FE
:10337C001A63FB68202283F83D20FB68002283F847
:10338C003E20FB681B6C43F02002FB681A64FB6850
:10339C00002283F83C20012307E0FB681B685B6973
:1033AC0003F04003402BAED1002318461037BD4626
:1033BC0080BD80B483B000AF78607B681B685B69AC
:1033CC0003F48063B3F5806F1BD17B681B686FF4CB
:1033DC0080625A617B6800221A637B68202283F822
:1033EC003D207B68002283F83E207B681B6C43F0F9
:1033FC0004027B681A647B68002283F83C2001235A
:10340C0000E0002318460C37BD4680BC7047000016
:10341C0080B586B000AF78607B68002B01D10123AA
:10342C0072E27B681B6803F00103002B00F08780BD
:10343C00924B5B6803F00C03042B0CD08F4B5B6836
:10344C0003F00C03082B12D18C4B5B6803F4803314
:10345C00B3F5803F0BD1894B1B6803F40033002B71
:10346C006CD07B685B68002B68D101234CE27B68D5
:10347C005B68B3F5803F06D1804B1B687F4A43F4F1
:10348C00803313602EE07B685B68002B0CD17B4B88
:10349C001B687A4A23F480331360784B1B68774A95
:1034AC0023F4802313601DE07B685B68B3F5A02FC9
:1034BC000CD1724B1B68714A43F4802313606F4B21
:1034CC001B686E4A43F4803313600BE06B4B1B6834
:1034DC006A4A23F480331360684B1B68674A23F4F1
:1034EC00802313607B685B68002B13D0FEF7B6F863
:1034FC00386108E0FEF7B2F802463B69D31A642B38
:10350C0001D9032300E25D4B1B6803F40033002B4D
:10351C00F0D014E0FEF7A2F8386108E0FEF79EF850
:10352C0002463B69D31A642B01D90323ECE1534BBC
:10353C001B6803F40033002BF0D100E000BF7B6864
:10354C001B6803F00203002B63D04C4B5B6803F049
:10355C000C03002B0BD0494B5B6803F00C03082BBE
:10356C001CD1464B5B6803F48033002B16D1434BC4
:10357C001B6803F00203002B05D07B681B69012B31
:10358C0001D00123C0E13D4B1B6823F0F8027B689E
:10359C005B69DB00394913430B603AE07B681B69BC
:1035AC00002B20D0364B01221A60FEF757F83861F9
:1035BC0008E0FEF753F802463B69D31A022B01D9F7
:1035CC000323A1E12D4B1B6803F00203002BF0D069
:1035DC002A4B1B6823F0F8027B685B69DB002749E8
:1035EC0013430B6015E0264B00221A60FEF736F8E9
:1035FC00386108E0FEF732F802463B69D31A022B19
:10360C0001D9032380E11D4B1B6803F00203002B3F
:10361C00F0D17B681B6803F00803002B3AD07B6861
:10362C009B69002B19D0174B01221A60FEF716F874
:10363C00386108E0FEF712F802463B69D31A022BF8
:10364C0001D9032360E10D4B5B6A03F00203002BED
:10365C00F0D0012000F0CEFA1CE00A4B00221A60D8
:10366C00FDF7FCFF38610FE0FDF7F8FF02463B6900
:10367C00D31A022B08D9032346E100BF00100240E5
:10368C000000424280044242924B5B6A03F0020308
:10369C00002BE9D17B681B6803F00403002B00F0BE
:1036AC00A6800023FB758B4BDB6903F08053002B4A
:1036BC000DD1884BDB69874A43F08053D361854B2E
:1036CC00DB6903F08053BB60BB680123FB75824B45
:1036DC001B6803F48073002B18D17F4B1B687E4A48
:1036EC0043F480731360FDF7B9FF386108E0FDF710
:1036FC00B5FF02463B69D31A642B01D9032303E1BE
:10370C00754B1B6803F48073002BF0D07B68DB686F
:10371C00012B06D16F4B1B6A6E4A43F001031362F7
:10372C002DE07B68DB68002B0CD16A4B1B6A694A65
:10373C0023F001031362674B1B6A664A23F00403F0
:10374C0013621CE07B68DB68052B0CD1614B1B6A98
:10375C00604A43F0040313625E4B1B6A5D4A43F0FC
:10376C00010313620BE05B4B1B6A5A4A23F0010303
:10377C001362584B1B6A574A23F0040313627B688D
:10378C00DB68002B15D0FDF769FF38610AE0FDF707
:10379C0065FF02463B69D31A41F28832934201D944
:1037AC000323B1E04B4B1B6A03F00203002BEED05A
:1037BC0014E0FDF753FF38610AE0FDF74FFF0246B6
:1037CC003B69D31A41F28832934201D903239BE01F
:1037DC00404B1B6A03F00203002BEED1FB7D012B47
:1037EC0005D13C4BDB693B4A23F08053D3617B68AA
:1037FC00DB69002B00F08780364B5B6803F00C0311
:10380C00082B61D07B68DB69022B46D1334B00223D
:10381C001A60FDF723FF386108E0FDF71FFF024631
:10382C003B69D31A022B01D903236DE0294B1B688A
:10383C0003F00073002BF0D17B681B6AB3F5803F5B
:10384C0008D1244B5B6823F400327B689B682149C8
:10385C0013434B601F4B5B6823F474127B68196A2B
:10386C007B685B6A0B431B4913434B601B4B012268
:10387C001A60FDF7F3FE386108E0FDF7EFFE024633
:10388C003B69D31A022B01D903233DE0114B1B6872
:10389C0003F00073002BF0D035E0104B00221A60BF
:1038AC00FDF7DCFE386108E0FDF7D8FE02463B6907
:1038BC00D31A022B01D9032326E0064B1B6803F015
:1038CC000073002BF0D11EE07B68DB69012B07D164
:1038DC00012319E0001002400070004060004242D9
:1038EC000B4B5B68FB60FB6803F480327B681B6AE4
:1038FC009A4206D1FB6803F470127B685B6A9A42A9
:10390C0001D0012300E0002318461837BD4680BDC6
:10391C000010024080B584B000AF786039607B68DD
:10392C00002B01D10123D0E06A4B1B6803F0070385
:10393C003A689A4210D9674B1B6823F00702654915
:10394C003B6813430B60634B1B6803F007033A6837
:10395C009A4201D00123B8E07B681B6803F0020394
:10396C00002B20D07B681B6803F00403002B05D0D0
:10397C00594B5B68584A43F4E06353607B681B689F
:10398C0003F00803002B05D0534B5B68524A43F4F9
:10399C0060535360504B5B6823F0F0027B689B686C
:1039AC004D4913434B607B681B6803F00103002BEC
:1039BC0040D07B685B68012B07D1474B1B6803F435
:1039CC000033002B15D101237FE07B685B68022B51
:1039DC0007D1414B1B6803F00073002B09D1012365
:1039EC0073E03D4B1B6803F00203002B01D1012354
:1039FC006BE0394B5B6823F003027B685B683649EC
:103A0C0013434B60FDF72AFEF8600AE0FDF726FE33
:103A1C000246FB68D31A41F28832934201D9032340
:103A2C0053E02D4B5B6803F00C027B685B689B00DA
:103A3C009A42EBD1274B1B6803F007033A689A4272
:103A4C0010D2244B1B6823F0070222493B68134316
:103A5C000B60204B1B6803F007033A689A4201D0B5
:103A6C00012332E07B681B6803F00403002B08D0B1
:103A7C00194B5B6823F4E0627B68DB6816491343DF
:103A8C004B607B681B6803F00803002B09D0124BBA
:103A9C005B6823F460527B681B69DB000E4913439F
:103AAC004B6000F021F802460B4B5B681B0903F0DE
:103ABC000F030A49CB5C22FA03F3094A1360094B42
:103ACC001B681846FDF788FD002318461037BD46C5
:103ADC0080BD00BF0020024000100240446400087A
:103AEC00080000200C00002080B487B000AF002339
:103AFC00FB600023BB6000237B6100237B60002301
:103B0C003B611E4B5B68FB60FB6803F00C03042BF2
:103B1C0002D0082B03D027E0194B3B6127E0FB6850
:103B2C009B0C03F00F03174AD35C7B60FB6803F418
:103B3C008033002B10D0114B5B685B0C03F001033E
:103B4C00114AD35CBB607B680D4A03FB02F2BB6875
:103B5C00B2FBF3F37B6104E07B680C4A02FB03F3DA
:103B6C007B617B693B6102E0054B3B6100BF3B69BC
:103B7C0018461C37BD4680BC704700BF0010024081
:103B8C0000127A005C6400086C64000800093D00B7
:103B9C0080B400AF024B1B681846BD4680BC704712
:103BAC000800002080B500AFFFF7F2FF0246054B7E
:103BBC005B681B0A03F007030349CB5C22FA03F38F
:103BCC00184680BD001002405464000880B500AF58
:103BDC00FFF7DEFF0246054B5B68DB0A03F00703C9
:103BEC000349CB5C22FA03F3184680BD0010024057
:103BFC005464000880B485B000AF78600A4B1B6831
:103C0C000A4AA2FB03235B0A7A6802FB03F3FB60FC
:103C1C0000BFFB685A1EFA60002BF9D100BF00BF31
:103C2C001437BD4680BC704708000020D34D62108D
:103C3C0080B586B000AF786000233B610023FB6049
:103C4C007B681B6803F00103002B7DD00023FB7500
:103C5C004F4BDB6903F08053002B0DD14C4BDB69D0
:103C6C004B4A43F08053D361494BDB6903F08053DB
:103C7C00BB60BB680123FB75464B1B6803F4807368
:103C8C00002B18D1434B1B68424A43F480731360DA
:103C9C00FDF7E4FC386108E0FDF7E0FC02463B6907
:103CAC00D31A642B01D903236DE03A4B1B6803F440
:103CBC008073002BF0D0364B1B6A03F44073FB600F
:103CCC00FB68002B2ED07B685B6803F44073FA68AA
:103CDC009A4227D02E4B1B6A23F44073FB602E4B69
:103CEC0001221A602C4B00221A60294AFB681362CD
:103CFC00FB6803F00103002B14D0FDF7AFFC386117
:103D0C000AE0FDF7ABFC02463B69D31A41F288325C
:103D1C00934201D9032336E01D4B1B6A03F00203C7
:103D2C00002BEED01A4B1B6A23F440727B685B6845
:103D3C00174913430B62FB7D012B05D1144BDB6937
:103D4C00134A23F08053D3617B681B6803F0020392
:103D5C00002B08D00E4B5B6823F440427B689B68B9
:103D6C000B4913434B607B681B6803F01003002B5B
:103D7C0008D0074B5B6823F480027B68DB6804493E
:103D8C0013434B60002318461837BD4680BD00BF57
:103D9C0000100240007000404004424280B582B0E6
:103DAC0000AF78607B68002B01D1012341E07B6878
:103DBC0093F83D30DBB2002B06D17B68002283F8F0
:103DCC003C207868FDF742FA7B68022283F83D209C
:103DDC007B681A687B6804331946104600F0CEFCE9
:103DEC007B68012283F846207B68012283F83E2001
:103DFC007B68012283F83F207B68012283F84020F6
:103E0C007B68012283F841207B68012283F84220E1
:103E1C007B68012283F843207B68012283F84420CD
:103E2C007B68012283F845207B68012283F83D20C2
:103E3C00002318460837BD4680BD80B582B000AF60
:103E4C0078607B68002B01D1012341E07B6893F8FB
:103E5C003D30DBB2002B06D17B68002283F83C207E
:103E6C00786800F039F87B68022283F83D207B6883
:103E7C001A687B6804331946104600F07FFC7B6897
:103E8C00012283F846207B68012283F83E207B6860
:103E9C00012283F83F207B68012283F840207B6855
:103EAC00012283F841207B68012283F842207B6841
:103EBC00012283F843207B68012283F844207B682D
:103ECC00012283F845207B68012283F83D200023E2
:103EDC0018460837BD4680BD80B483B000AF78600B
:103EEC0000BF0C37BD4680BC7047000080B584B065
:103EFC0000AF786039600023FB733B68002B09D15D
:103F0C007B6893F83E30DBB2012B14BF01230023F6
:103F1C00DBB222E03B68042B09D17B6893F83F307D
:103F2C00DBB2012B14BF01230023DBB215E03B688D
:103F3C00082B09D17B6893F84030DBB2012B14BFFE
:103F4C0001230023DBB208E07B6893F84130DBB23D
:103F5C00012B14BF01230023DBB2002B01D0012362
:103F6C00A9E03B68002B04D17B68022283F83E2039
:103F7C0013E03B68042B04D17B68022283F83F20BA
:103F8C000BE03B68082B04D17B68022283F84020AD
:103F9C0003E07B68022283F841203B680C2B41D85C
:103FAC0001A252F823F000BFE93F0008314000089D
:103FBC003140000831400008FB3F00083140000848
:103FCC0031400008314000080D4000083140000825
:103FDC0031400008314000081F4000087B681B6816
:103FEC00DA687B681B6842F00202DA601DE07B68CD
:103FFC001B68DA687B681B6842F00402DA6014E024
:10400C007B681B68DA687B681B6842F00802DA6020
:10401C000BE07B681B68DA687B681B6842F0100257
:10402C00DA6002E00123FB7300BFFB7B002B41D164
:10403C007B681B6801223968184600F02BFE7B68F0
:10404C001B681F4A934207D17B681B685A6C7B68BC
:10405C001B6842F400425A647B681B68184A9342FE
:10406C000ED07B681B68B3F1804F09D07B681B684E
:10407C00144A934204D07B681B68134A934211D1B3
:10408C007B681B689B6803F00703BB60BB68062B4F
:10409C0010D07B681B681A687B681B6842F00102B1
:1040AC001A6007E07B681B681A687B681B6842F023
:1040BC0001021A60FB7B18461037BD4680BD00BF5D
:1040CC00002C0140000400400008004080B584B082
:1040DC0000AF786039600023FB733B680C2B41D830
:1040EC0001A252F823F000BF2941000871410008D9
:1040FC0071410008714100083B4100087141000802
:10410C0071410008714100084D41000871410008DF
:10411C0071410008714100085F4100087B681B6811
:10412C00DA687B681B6822F00202DA601DE07B68AB
:10413C001B68DA687B681B6822F00402DA6014E002
:10414C007B681B68DA687B681B6822F00802DA60FF
:10415C000BE07B681B68DA687B681B6822F0100236
:10416C00DA6002E00123FB7300BFFB7B002B57D10D
:10417C007B681B6800223968184600F08BFD7B6851
:10418C001B682A4A934217D17B681B681A6A41F252
:10419C0011131340002B0FD17B681B681A6A40F275
:1041AC0044431340002B07D17B681B685A6C7B6817
:1041BC001B6822F400425A647B681B681A6A41F23D
:1041CC0011131340002B0FD17B681B681A6A40F245
:1041DC0044431340002B07D17B681B681A687B682B
:1041EC001B6822F001021A603B68002B04D17B682B
:1041FC00012283F83E2013E03B68042B04D17B683A
:10420C00012283F83F200BE03B68082B04D17B682C
:10421C00012283F8402003E07B68012283F84120CF
:10422C00FB7B18461037BD4680BD00BF002C0140FB
:10423C0080B584B000AF78607B681B68DB68FB607E
:10424C007B681B681B69BB60BB6803F00203002B17
:10425C0020D0FB6803F00203002B1BD07B681B688B
:10426C006FF002021A617B6801221A777B681B6867
:10427C009B6903F00303002B03D0786800F063FA0A
:10428C0005E0786800F056FA786800F065FA7B680B
:10429C0000221A77BB6803F00403002B20D0FB68C4
:1042AC0003F00403002B1BD07B681B686FF0040227
:1042BC001A617B6802221A777B681B689B6903F47E
:1042CC004073002B03D0786800F03DFA05E0786865
:1042DC0000F030FA786800F03FFA7B6800221A7719
:1042EC00BB6803F00803002B20D0FB6803F0080325
:1042FC00002B1BD07B681B686FF008021A617B686F
:10430C0004221A777B681B68DB6903F00303002B1C
:10431C0003D0786800F017FA05E0786800F00AFA24
:10432C00786800F019FA7B6800221A77BB6803F0F2
:10433C001003002B20D0FB6803F01003002B1BD0C4
:10434C007B681B686FF010021A617B6808221A7771
:10435C007B681B68DB6903F44073002B03D078681F
:10436C0000F0F1F905E0786800F0E4F9786800F005
:10437C00F3F97B6800221A77BB6803F00103002B6A
:10438C000CD0FB6803F00103002B07D07B681B6883
:10439C006FF001021A61786800F0C3F9BB6803F092
:1043AC008003002B0CD0FB6803F08003002B07D09C
:1043BC007B681B686FF080021A61786800F0F5FC6E
:1043CC00BB6803F04003002B0CD0FB6803F04003E8
:1043DC00002B07D07B681B686FF040021A6178686D
:1043EC0000F0C3F9BB6803F02003002B0CD0FB6872
:1043FC0003F02003002B07D07B681B686FF02002B2
:10440C001A61786800F0C8FC00BF1037BD4680BD4B
:10441C0080B586B000AFF860B9607A600023FB7598
:10442C00FB6893F83C30012B01D10223AEE0FB6812
:10443C00012283F83C207B680C2B00F29F8001A2A8
:10444C0052F823F085440008894500088945000886
:10445C0089450008C54400088945000889450008BD
:10446C00894500080745000889450008894500086A
:10447C008945000847450008FB681B68B968184661
:10448C0000F0EAF9FB681B689A69FB681B6842F04C
:10449C0008029A61FB681B689A69FB681B6822F02A
:1044AC0004029A61FB681B689969BB681A69FB680E
:1044BC001B680A439A6164E0FB681B68B96818467C
:1044CC0000F030FAFB681B689A69FB681B6842F4C1
:1044DC0000629A61FB681B689A69FB681B6822F48E
:1044EC0080629A61FB681B689969BB681B691A0238
:1044FC00FB681B680A439A6143E0FB681B68B96858
:10450C00184600F079FAFB681B68DA69FB681B68CF
:10451C0042F00802DA61FB681B68DA69FB681B6809
:10452C0022F00402DA61FB681B68D969BB681A695E
:10453C00FB681B680A43DA6123E0FB681B68B968F7
:10454C00184600F0C3FAFB681B68DA69FB681B6845
:10455C0042F40062DA61FB681B68DA69FB681B686D
:10456C0022F48062DA61FB681B68D969BB681B693D
:10457C001A02FB681B680A43DA6102E00123FB752F
:10458C0000BFFB68002283F83C20FB7D18461837DF
:10459C00BD4680BD80B584B000AF78603960002323
:1045AC00FB737B6893F83C30012B01D10223B4E000
:1045BC007B68012283F83C207B68022283F83D2033
:1045CC007B681B689B68BB60BB6823F07703BB6090
:1045DC00BB6823F47F43BB607B681B68BA689A6036
:1045EC003B681B68B3F5005F3ED0B3F5005F00F28B
:1045FC008780B3F5805F00F08680B3F5805F7FD84D
:10460C00702B1AD0702B7BD8602B50D0602B77D8A6
:10461C00502B3CD0502B73D8402B58D0402B6FD8FC
:10462C00302B64D0302B6BD8202B60D0202B67D84C
:10463C00002B5CD0102B5AD062E07B6818683B686A
:10464C0099683B685A683B68DB6800F004FB7B6840
:10465C001B689B68BB60BB6843F07703BB607B68DF
:10466C001B68BA689A604FE07B6818683B68996869
:10467C003B685A683B68DB6800F0EDFA7B681B68A6
:10468C009A687B681B6842F480429A603CE07B68C5
:10469C0018683B6859683B68DB681A4600F064FA96
:1046AC007B681B685021184600F0BBFA2CE07B6835
:1046BC0018683B6859683B68DB681A4600F082FA58
:1046CC007B681B686021184600F0ABFA1CE07B6825
:1046DC0018683B6859683B68DB681A4600F044FA76
:1046EC007B681B684021184600F09BFA0CE07B6845
:1046FC001A683B681B681946104600F092FA03E0F2
:10470C000123FB7300E000BF7B68012283F83D208E
:10471C007B68002283F83C20FB7B18461037BD4693
:10472C0080BD80B483B000AF786000BF0C37BD464D
:10473C0080BC704780B483B000AF786000BF0C378A
:10474C00BD4680BC704780B483B000AF786000BFBA
:10475C000C37BD4680BC704780B483B000AF786026
:10476C0000BF0C37BD4680BC704780B483B000AF2F
:10477C00786000BF0C37BD4680BC704780B485B0F4
:10478C0000AF786039607B681B68FB607B682F4AE0
:10479C0093420BD07B68B3F1804F07D07B682C4AD7
:1047AC00934203D07B682B4A934208D1FB6823F0D9
:1047BC007003FB603B685B68FA681343FB607B68C3
:1047CC00224A93420BD07B68B3F1804F07D07B68B1
:1047DC001F4A934203D07B681E4A934208D1FB6860
:1047EC0023F44073FB603B68DB68FA681343FB609F
:1047FC00FB6823F080023B685B691343FB607B68BA
:10480C00FA681A603B689A687B68DA623B681A68D7
:10481C007B689A627B680D4A934203D13B681A69A4
:10482C007B681A637B6801225A617B681B6903F001
:10483C000103002B05D07B681B6923F001027B6808
:10484C001A6100BF1437BD4680BC7047002C014074
:10485C00000400400008004080B487B000AF7860CE
:10486C0039607B681B6A7B617B681B6A23F00102E1
:10487C007B681A627B685B683B617B689B69FB6049
:10488C00FB6823F07003FB60FB6823F00303FB6001
:10489C003B681B68FA681343FB607B6923F00203D7
:1048AC007B613B689B687A6913437B617B681C4A1C
:1048BC0093420CD17B6923F008037B613B68DB6876
:1048CC007A6913437B617B6923F004037B617B680A
:1048DC00134A934211D13B6923F480733B613B69CA
:1048EC0023F400733B613B685B693A6913433B619A
:1048FC003B689B693A6913433B617B683A695A6030
:10490C007B68FA689A613B685A687B685A637B6873
:10491C007A691A6200BF1C37BD4680BC704700BF65
:10492C00002C014080B487B000AF786039607B68A0
:10493C001B6A7B617B681B6A23F010027B681A621E
:10494C007B685B683B617B689B69FB60FB6823F45D
:10495C00E043FB60FB6823F44073FB603B681B681F
:10496C001B02FA681343FB607B6923F020037B6115
:10497C003B689B681B017A6913437B617B681D4A0A
:10498C0093420DD17B6923F080037B613B68DB682C
:10499C001B017A6913437B617B6923F040037B61C4
:1049AC007B68144A934213D13B6923F480633B61C7
:1049BC003B6923F400633B613B685B699B003A698C
:1049CC0013433B613B689B699B003A6913433B6112
:1049DC007B683A695A607B68FA689A613B685A68E6
:1049EC007B689A637B687A691A6200BF1C37BD4684
:1049FC0080BC7047002C014080B487B000AF786059
:104A0C0039607B681B6A7B617B681B6A23F480724C
:104A1C007B681A627B685B683B617B68DB69FB6067
:104A2C00FB6823F07003FB60FB6823F00303FB605F
:104A3C003B681B68FA681343FB607B6923F40073C3
:104A4C007B613B689B681B027A6913437B617B68C3
:104A5C001D4A93420DD17B6923F400637B613B6853
:104A6C00DB681B027A6913437B617B6923F48063E7
:104A7C007B617B68144A934213D13B6923F48053C6
:104A8C003B613B6923F400533B613B685B691B0151
:104A9C003A6913433B613B689B691B013A691343B9
:104AAC003B617B683A695A607B68FA68DA613B68FB
:104ABC005A687B68DA637B687A691A6200BF1C37B4
:104ACC00BD4680BC704700BF002C014080B487B04D
:104ADC0000AF786039607B681B6A3B617B681B6A3E
:104AEC0023F480527B681A627B685B687B617B680D
:104AFC00DB69FB60FB6823F4E043FB60FB6823F499
:104B0C004073FB603B681B681B02FA681343FB6035
:104B1C003B6923F400533B613B689B681B033A6978
:104B2C0013433B617B680F4A934209D17B6923F4A1
:104B3C0080437B613B685B699B017A6913437B61B2
:104B4C007B687A695A607B68FA68DA613B685A68F4
:104B5C007B681A647B683A691A6200BF1C37BD46D1
:104B6C0080BC7047002C014080B487B000AFF86067
:104B7C00B9607A60FB681B6A7B61FB681B6A23F077
:104B8C000102FB681A62FB689B693B613B6923F07D
:104B9C00F0033B617B681B013A6913433B617B6902
:104BAC0023F00A037B617A69BB6813437B61FB6862
:104BBC003A699A61FB687A691A6200BF1C37BD4674
:104BCC0080BC704780B487B000AFF860B9607A6081
:104BDC00FB681B6A7B61FB681B6A23F01002FB6895
:104BEC001A62FB689B693B613B6923F470433B6130
:104BFC007B681B033A6913433B617B6923F0A00379
:104C0C007B61BB681B017A6913437B61FB683A6962
:104C1C009A61FB687A691A6200BF1C37BD4680BC7A
:104C2C00704780B485B000AF786039607B689B6852
:104C3C00FB60FB6823F07003FB603A68FB6813436E
:104C4C0043F00703FB607B68FA689A6000BF143777
:104C5C00BD4680BC704780B487B000AFF860B960C7
:104C6C007A603B60FB689B687B617B6923F47F43C4
:104C7C007B613B681A027B681A43BB6813437A69F1
:104C8C0013437B61FB687A699A6000BF1C37BD4691
:104C9C0080BC704780B487B000AFF860B9607A60B0
:104CAC00BB6803F01F03012202FA03F37B61FB686C
:104CBC001A6A7B69DB431A40FB681A62FB681A6A42
:104CCC00BB6803F01F03796801FA03F31A43FB680E
:104CDC001A6200BF1C37BD4680BC704780B485B0DB
:104CEC0000AF786039607B6893F83C30012B01D1C0
:104CFC00022346E07B68012283F83C207B68022279
:104D0C0083F83D207B681B685B68FB607B681B68D5
:104D1C009B68BB60FB6823F07003FB603B681B68FF
:104D2C00FA681343FB607B681B68FA685A607B68FF
:104D3C001B68164A93420ED07B681B68B3F1804FF8
:104D4C0009D07B681B68124A934204D07B681B68AD
:104D5C00104A93420CD1BB6823F08003BB603B68C4
:104D6C005B68BA681343BB607B681B68BA689A605F
:104D7C007B68012283F83D207B68002283F83C206D
:104D8C00002318461437BD4680BC7047002C0140E8
:104D9C00000400400008004080B483B000AF78608D
:104DAC0000BF0C37BD4680BC704780B483B000AFE9
:104DBC00786000BF0C37BD4680BC704780B582B0B0
:104DCC0000AF78607B68002B01D1012342E07B6847
:104DDC0093F84130DBB2002B06D17B68002283F8BC
:104DEC0040207868FCF7C2FA7B68242283F84120C3
:104DFC007B681B68DA687B681B6822F40052DA60F7
:104E0C00786800F063FD7B681B681A697B681B6817
:104E1C0022F490421A617B681B685A697B681B6894
:104E2C0022F02A025A617B681B68DA687B681B686F
:104E3C0042F40052DA607B6800225A647B682022BC
:104E4C0083F841207B68202283F842207B68002273
:104E5C005A63002318460837BD4680BD80B58AB01A
:104E6C0002AFF860B9603B601346FB8000237B61A6
:104E7C00FB6893F84130DBB2202B75D1BB68002B5B
:104E8C0002D0FB88002B01D101236EE0FB680022CD
:104E9C005A64FB68212283F84120FCF7DFFB786120
:104EAC00FB68FA889A84FB68FA88DA84FB689B684A
:104EBC00B3F5805F08D1FB681B69002B04D100237C
:104ECC00FB61BB68BB6103E0BB68FB610023BB619A
:104EDC002EE03B6800937B6900228021F86800F08B
:104EEC0001FB0346002B05D0FB68202283F84120F0
:104EFC0003233AE0FB69002B0BD1BB691B881A46D4
:104F0C00FB681B68C2F308025A60BB690233BB61C1
:104F1C0007E0FB691A78FB681B685A60FB69013370
:104F2C00FB61FB68DB8C9BB2013B9AB2FB68DA84B9
:104F3C00FB68DB8C9BB2002BCBD13B6800937B696D
:104F4C0000224021F86800F0CDFA0346002B05D072
:104F5C00FB68202283F84120032306E0FB68202213
:104F6C0083F84120002300E0022318462037BD4679
:104F7C0080BD000080B5BAB000AF78607B681B685C
:104F8C001B68C7F8E4307B681B68DB68C7F8E03047
:104F9C007B681B685B69C7F8DC300023C7F8D83026
:104FAC000023C7F8D430D7F8E43003F00F03C7F868
:104FBC00D830D7F8D830002B0FD1D7F8E43003F025
:104FCC002003002B09D0D7F8E03003F02003002B8E
:104FDC0003D0786800F0BCFB5BE2D7F8D830002B2C
:104FEC0000F0DE80D7F8DC3003F00103002B06D193
:104FFC00D7F8E03003F49073002B00F0D180D7F891
:10500C00E43003F00103002B0BD0D7F8E03003F4AD
:10501C008073002B05D07B685B6C43F001027B68CE
:10502C005A64D7F8E43003F00403002B0BD0D7F804
:10503C00DC3003F00103002B05D07B685B6C43F084
:10504C0002027B685A64D7F8E43003F00203002BA9
:10505C000BD0D7F8DC3003F00103002B05D07B68B4
:10506C005B6C43F004027B685A64D7F8E43003F0BD
:10507C000803002B11D0D7F8E03003F02003002BED
:10508C0005D1D7F8DC3003F00103002B05D07B6889
:10509C005B6C43F008027B685A647B685B6C002B8A
:1050AC0000F0F281D7F8E43003F02003002B08D095
:1050BC00D7F8E03003F02003002B02D0786800F022
:1050CC0047FB7B681B685B6903F04003002B14BF34
:1050DC0001230023DBB2C7F8D4307B685B6C03F090
:1050EC000803002B03D1D7F8D430002B4FD07868AD
:1050FC0000F051FA7B681B685B6903F04003002BDE
:10510C0041D07B681B681433C7F89C30D7F89C30AF
:10511C0053E8003FC7F89830D7F8983023F0400395
:10512C00C7F8D0307B681B681433D7F8D020C7F889
:10513C00A820C7F8A430D7F8A410D7F8A82041E8C5
:10514C000023C7F8A030D7F8A030002BD9D17B684A
:10515C00DB6B002B13D07B68DB6B7E4A5A637B685E
:10516C00DB6B1846FCF7DCFE0346002B16D07B6885
:10517C00DB6B5B6B7A68D26B104698470EE07868F5
:10518C0000F09CF90AE0786800F098F906E078687D
:10519C0000F094F97B6800225A6475E100BF73E15A
:1051AC007B681B6B012B40F04F81D7F8E43003F088
:1051BC001003002B00F04881D7F8E03003F0100307
:1051CC00002B00F041810023BB607B681B681B68CF
:1051DC00BB607B681B685B68BB60BB687B681B68DB
:1051EC005B6903F04003002B00F0B6807B68DB6B3F
:1051FC001B685B68A7F8BE30B7F8BE30002B00F018
:10520C0045817B689B8DB7F8BE209A4280F03E8129
:10521C007B68B7F8BE20DA857B68DB6B9B69202B3B
:10522C0000F088807B681B680C33C7F88830D7F88F
:10523C00883053E8003FC7F88430D7F8843023F423
:10524C008073C7F8B8307B681B680C33D7F8B8206C
:10525C00C7F89420C7F89030D7F89010D7F894205E
:10526C0041E80023C7F88C30D7F88C30002BD9D10B
:10527C007B681B6814337B677B6F53E8003F3B678D
:10528C003B6F23F00103C7F8B4307B681B68143301
:10529C00D7F8B420C7F88020FB67F96FD7F88020C7
:1052AC0041E80023BB67BB6F002BE1D17B681B6817
:1052BC0014333B663B6E53E8003FFB65FB6D23F0FC
:1052CC004003C7F8B0307B681B681433D7F8B020A4
:1052DC00FA66BB66B96EFA6E41E800237B667B6E9C
:1052EC00002BE3D17B68202283F842207B680022CC
:1052FC001A637B681B680C33FB64FB6C53E8003F40
:10530C00BB64BB6C23F01003C7F8AC307B681B6824
:10531C000C33D7F8AC20BA657B65796DBA6D41E872
:10532C0000233B653B6D002BE3D17B68DB6B1846A0
:10533C00FCF7BBFD7B6802225A637B689A8D7B6805
:10534C00DB8D9BB2D31A9BB21946786800F0BFF87C
:10535C009CE000BF675600087B689A8D7B68DB8DEC
:10536C009BB2D31AA7F8CE307B68DB8D9BB2002B97
:10537C0000F08E80B7F8CE30002B00F089807B686F
:10538C001B680C33BB63BB6B53E8003F7B637B6BCD
:10539C0023F49073C7F8C8307B681B680C33D7F8BC
:1053AC00C8207A643B64396C7A6C41E80023FB6357
:1053BC00FB6B002BE3D17B681B6814337B627B6A2D
:1053CC0053E8003F3B623B6A23F00103C7F8C4304B
:1053DC007B681B681433D7F8C4203A63FB62F96A04
:1053EC003A6B41E80023BB62BB6A002BE3D17B68BC
:1053FC00202283F842207B6800221A637B681B689A
:10540C000C333B613B6953E8003FFB60FB6823F0C6
:10541C001003C7F8C0307B681B680C33D7F8C0206A
:10542C00FA61BB61B969FA6941E800237B617B6968
:10543C00002BE3D17B6802225A63B7F8CE301946B1
:10544C00786800F044F823E0D7F8E43003F08003E8
:10545C00002B09D0D7F8E03003F08003002B03D0E9
:10546C00786800F00EF914E0D7F8E43003F040034C
:10547C00002B0ED0D7F8E03003F04003002B08D0FF
:10548C00786800F04DF904E000BF02E000BF00E0D6
:10549C0000BFE837BD4680BD80B483B000AF7860F4
:1054AC0000BF0C37BD4680BC704780B483B000AFE2
:1054BC00786000BF0C37BD4680BC704780B483B0A9
:1054CC0000AF786000BF0C37BD4680BC704780B41D
:1054DC0083B000AF78600B467B8000BF0C37BD46B5
:1054EC0080BC704780B586B000AFF860B9603B6097
:1054FC001346FB713BE03B6AB3F1FF3F37D0FCF73F
:10550C00ADF802463B68D31A3A6A9A4202D33B6A18
:10551C00002B01D103233AE0FB681B68DB6803F026
:10552C000403002B23D0BB68802B20D0BB68402BFE
:10553C001DD0FB681B681B6803F00803082B16D1F1
:10554C0000237B61FB681B681B687B61FB681B6825
:10555C005B687B617B69F86800F01DF8FB680822CA
:10556C005A64FB68002283F8402001230FE0FB689B
:10557C001B681A68BB681340BA689A420CBF0123B7
:10558C000023DBB21A46FB799A42B4D000231846AA
:10559C001837BD4680BD80B495B000AF78607B688D
:1055AC001B680C337B637B6B53E8003F3B633B6BAB
:1055BC0023F49073FB647B681B680C33FA6C3A64BD
:1055CC00FB63F96B3A6C41E80023BB63BB6B002BAC
:1055DC00E5D17B681B6814333B623B6A53E8003FA0
:1055EC00FB61FB6923F00103BB647B681B6814330C
:1055FC00BA6CFA62BB62B96AFA6A41E800237B6250
:10560C007B6A002BE5D17B681B6B012B19D17B6866
:10561C001B680C33FB60FB6853E8003FBB60BB6846
:10562C0023F010037B647B681B680C337A6CBA61C3
:10563C007B617969BA6941E800233B613B69002BC6
:10564C00E5D17B68202283F842207B6800221A6314
:10565C0000BF5437BD4680BC704780B584B000AFE6
:10566C0078607B685B6AFB60FB680022DA85FB680C
:10567C000022DA84F868FFF721FF00BF1037BD461F
:10568C0080BD80B485B000AF78607B6893F8413002
:10569C00DBB2212B3ED17B689B68B3F5805F14D1C4
:1056AC007B681B69002B10D17B681B6AFB60FB6855
:1056BC001B881A467B681B68C2F308025A607B6819
:1056CC001B6A9A1C7B681A6208E07B681B6A591C6F
:1056DC007A6811621A787B681B685A607B68DB8C6D
:1056EC009BB2013B9BB27A681946D184002B0FD137
:1056FC007B681B68DA687B681B6822F08002DA60C2
:10570C007B681B68DA687B681B6842F04002DA60D1
:10571C00002300E0022318461437BD4680BC7047B6
:10572C0080B582B000AF78607B681B68DA687B68F4
:10573C001B6822F04002DA607B68202283F841204B
:10574C007868FFF7A9FE002318460837BD4680BDD0
:10575C0080B58CB000AF78607B6893F84230DBB2D8
:10576C00222B40F0AE807B689B68B3F5805F17D12D
:10577C007B681B69002B13D10023FB627B689B6A3F
:10578C00BB627B681B685B689BB2C3F308039AB26D
:10579C00BB6A1A807B689B6A9A1C7B689A6226E0BB
:1057AC007B689B6AFB620023BB627B689B68B3F5DA
:1057BC00805F07D07B689B68002B0AD17B681B69D4
:1057CC00002B06D17B681B685B68DAB2FB6A1A7027
:1057DC0008E07B681B685B68DBB203F07F03DAB21E
:1057EC00FB6A1A707B689B6A5A1C7B689A627B689E
:1057FC00DB8D9BB2013B9BB27A681946D185002B9D
:10580C005DD17B681B68DA687B681B6822F020021C
:10581C00DA607B681B68DA687B681B6822F480722C
:10582C00DA607B681B685A697B681B6822F001028E
:10583C005A617B68202283F842207B6800225A63DD
:10584C007B681B6B012B35D17B6800221A637B684C
:10585C001B680C337B617B6953E8003F3B613B6900
:10586C0023F010037B627B681B680C337A6A3A6204
:10587C00FB61F9693A6A41E80023BB61BB69002B03
:10588C00E5D17B681B681B6803F01003102B0AD151
:10589C000023FB607B681B681B68FB607B681B68D4
:1058AC005B68FB60FB687B689B8D19467868FFF72B
:1058BC000EFE02E07868FFF7F8FD002302E00023FB
:1058CC0000E0022318463037BD4680BD80B584B059
:1058DC0000AF78607B681B681B6923F440517B68C0
:1058EC00DA687B681B680A431A617B689A687B6874
:1058FC001B691A437B685B691343BB607B681B683D
:10590C00DB6823F4B05323F00C037A681268B9688F
:10591C000B43D3607B681B685B6923F440717B6825
:10592C009A697B681B680A435A617B681B682C4A1E
:10593C00934203D1FEF74AF9F86002E0FEF732F920
:10594C00F860FA6813469B0013449A001A447B686B
:10595C005B689B00B2FBF3F3224AA2FB03235B09B7
:10596C001901FA6813469B0013449A001A447B6889
:10597C005B689B00B2FBF3F21A4BA3FB02035B09BF
:10598C00642000FB03F3D31A1B013233154AA2FB2C
:10599C0003235B0903F0F0031944FA6813469B00D8
:1059AC0013449A001A447B685B689B00B2FBF3F2C9
:1059BC000C4BA3FB02035B09642000FB03F3D31A1B
:1059CC001B013233074AA2FB03235B0903F00F02CE
:1059DC007B681B680A449A6000BF1037BD4680BDC7
:1059EC00003801401F85EB510CB430B5174B0C1E21
:1059FC001D689DB008DA8B234FF0FF302B601DB073
:105A0C00BDE8304002B070474FF40273ADF814306B
:105A1C000CBF234604F1FF33049307934FF6FF7337
:105A2C0002900690ADF81630284621AB209A02A9B8
:105A3C00019300F0B3F9431CBCBF8B232B60002CEB
:105A4C00DDD00022029B1A70D9E700BF14000020A1
:105A5C000EB46FF0004100B59CB01DAB02900690E7
:105A6C00079104910848094953F8042B05910068E3
:105A7C0002A9019300F092F90022029B1A701CB04B
:105A8C005DF804EB03B07047140000200802FFFF20
:105A9C0003460244934200D1704703F8011BF9E717
:105AAC00014B1868704700BF1400002070B5002629
:105ABC000C4D0D4C641BA410A64209D100F078FCCF
:105ACC0000260A4D0A4C641BA410A64205D170BDD9
